:1020000000800020356400001F6400001F64000091
:1020100000000000000000000000000000000000C0
:102020000000000000000000000000001F6400002D
:1020300000000000000000001F6400008964000030
:102040001F6400001F6400001F6400001F64000084
:102050001F6400001F640000414200002164000072
:102060001F64000041440000614400001F64000040
:10207000892D00001F640000514400001F6400000F
:102080001F6400001F6400001F6400001F64000044
:10209000000000001F6400001F6400001F640000B7
:1020A0001F6400001F6400001F6400001F64000024
:1020B0000000000010B5064C2378002B07D1054B1B
:1020C000002B02D0044800E000BF0123237010BDA4
:1020D0009402002000000000D0EF0000044B10B577
:1020E000002B03D00349044800E000BF10BDC046E8
:1020F0000000000098020020D0EF0000E12170B540
:10210000364E4902300002F0D3FE300002F0D4FE19
:102110000028FAD0324C200001F00AF88022314D1C
:1021200052000021280007F05AFC802201235200AF
:102130002900200001F02CF82900300002F019FAE3
:10214000802200215200280007F049FC8022012350
:1021500052002900200001F03BF82900300002F075
:1021600008FA214B214A2249200001F005FA0121F9
:10217000200001F0ADF801220021200001F09EF9BD
:102180001C4A0021200001F049F91B4A01212000CE
:1021900001F044F9194A0221200001F03FF9154AE3
:1021A0000021200001F008F903221549200001F068
:1021B000D3F80021200001F0B9F80021200001F03F
:1021C0009FF80E21200001F05BF90522002120007C
:1021D00001F03EF80028F8D070BDC0460410002081
:1021E000B4070020B002002028E0000049E0000011
:1021F0005AE00000660659443313594400205944FC
:102200000060594410B50400024B036001F0CAFDA0
:10221000200010BD8CE4000010B5094C200000F037
:102220004FFC0121262004F0E5FB064800F07EFA71
:10223000054800F0CFFE2100044801F0B2FB10BDBC
:102240001C050020B003002084070020D8030020D4
:1022500037B504F027F9264C0500200000F0B7FA46
:10226000244B2D1A9D420ED9200000F09FFB002820
:1022700009D1200000F08FFA1F4B1860200000F0F9
:1022800084FA1E4B18600023072201A91C48019301
:1022900001F0AAFE112004F017FB05F051FC194BC8
:1022A00018600E2004F010FB05F04AFC164B186075
:1022B000164800F0FDFE05F0F9FB154B18601020E4
:1022C00004F002FBFA239B00584307F0ABF9114AD4
:1022D000114B05F091FF0022104B06F009FE002281
:1022E0000F4B05F089FF07F05BFA0E4B186037BD06
:1022F000B0030020E70300001405002000050020C3
:10230000D8030020FC0400200C05002084070020D6
:1023100004050020333333333333114000C05440BD
:10232000000035401805002073B53F4D3F4C2B7819
:10233000002B09D03E49200002F02CF93D49200035
:1023400002F028F900232B703B4B0226186807F097
:10235000D5F9009602000B00200002F033FA374D49
:102360002000290002F005F9354B186807F0C6F97E
:10237000009602000B00200002F024FA2900200041
:1023800002F0F7F82F4B186807F0B8F90096020032
:102390000B00200002F016FA2900200002F0E9F8F4
:1023A0008021294BC9051E68301C04F06FFE2749A7
:1023B000002808D1FE21301C890504F067FE24495D
:1023C000002800D12349200002F0D3F82900200082
:1023D00002F0CFF8204B0226186807F08FF90B00A7
:1023E000002102000091200002F0ECF929002000F9
:1023F00002F0BFF8194B186807F080F90096020048
:102400000B00200002F0DEF92900200002F0B1F8F4
:10241000134B186807F072F9009602000B002000B9
:1024200002F0D9F973BDC04604000020041000205A
:102430006BE000008EE000001405002000E10000C9
:102440000005002008050020FC040020ADE000008D
:102450002FE50000AFE000000C050020040500207F
:102460001805002010B50A4C4C220021200007F06E
:10247000B6FA200001F078FA064B074A0749200017
:10248000236004F02DFC0649064800F037F910BD22
:10249000D80300208CE4000000000020052200008A
:1024A0001C050020B0030020F7B55C4C5C492000FF
:1024B00002F05BF85B4D2B78002B00D19FE02800E9
:1024C00001F022FF062602000B000096200002F019
:1024D00079F95549200002F048F8280001F038FF4A
:1024E000009602000B00200002F06CF92E004F490C
:1024F0002000383602F039F83378002B00D183E021
:10250000300001F055FF0A220100200002F09FF880
:10251000474F2000390002F028F8300001F054FF46
:102520000A220100200002F092F83900200002F097
:102530001CF8300001F030FF0A220100200002F0F8
:1025400076F83C49200002F010F828004830037863
:10255000002B5ED001F044FF092803D83649200043
:1025600002F003F8354D280001F03AFF0A2201007D
:10257000200002F06CF8324E2000310001F0F5FF2F
:10258000280001F039FF092803D82B49200001F069
:10259000ECFF280001F030FF0A220100200002F0C9
:1025A00056F83100200001F0E0FF280001F032FF72
:1025B000092803D82049200001F0D7FF280001F0A6
:1025C00029FF0A220100200002F041F81D492000E5
:1025D00001F0CBFF280001F029FF092803D8164994
:1025E000200001F0C2FF280001F020FF0A220100B4
:1025F000200002F02CF8200001F0C4FFF7BD1249C2
:10260000200001F0B2FF71E70F49200001F0ADFF9B
:1026100097E70D49200001F0A8FFECE70410002027
:10262000C5E1000024040020D0E10000DAE1000050
:10263000E8E10000C8EC0000EAE100006C040020C2
:10264000E9E00000ECE10000D2E1000010B5024832
:1026500001F01AFE10BDC0462404002010B5FFF79B
:10266000F7FDFFF761FE024803F052FF10BDC046C0
:10267000E093040070B59626154803F049FF154C09
:10268000154D2000290001F085FFB60113492000F7
:1026900001F080FF3100200002F00AFC31001048F8
:1026A00003F096FC03F0FEFE0E4904F02FFB0E4BE8
:1026B0001860FFF7B1FDFFF721FDFFF7F5FE0B49AD
:1026C000200001F067FF2900200001F063FF70BDCA
:1026D0001027000004100020B1E00000EEE100002F
:1026E0003809002080EE36001005002012E20000BC
:1026F00010B50368C9B21B68984710BD002343603A
:1027000003608360C360002341620374436183619B
:10271000704710B504003821406A00F0F1F9606A92
:1027200000F099FA43425841C0B210BD10B5FFF70E
:10273000F0FF10BDF8B5072206003821406A00F00E
:1027400028FA00281AD006281BDD350001271C3581
:102750002C18706A03685B699847C0B22870002F14
:1027600002D047424741FFB20135A542F1D1002FC7
:1027700009D103F097FEB0610720F8BD0B2040425D
:10278000FBE70C20FBE70D20F9E710B58168006836
:1027900004F0C8FC10BD10B5C168406804F0C2FC6C
:1027A00010BD10B5040001223821406A00F0F1F993
:1027B000012003F0ADFE606A03685B699847C0B210
:1027C00010BD10B5FFF7EDFFC0B2C00910BD8069A4
:1027D000704770B5FF20082431258A1891420ED029
:1027E0000B785840230046B24000C0B2002E00DAF9
:1027F0006840013BDBB2002BF5D10131EEE770BD43
:1028000070B50400037F0374437F807FE57F1B0264
:10281000C01800012B11181806F03EFF0022164BBD
:1028200006F0F4F806F0BCFF20600F20631C0540A2
:10283000D87F2D02A31C4519D87F2D02401906F020
:102840002BFF00220D4B06F0E1F80D4B002206F0A5
:102850004FFB06F0A5FF210060601C31200006221E
:10286000FFF7B7FF0334E37F834201D1002070BD3F
:102870000A204042FBE7C0460000193F0000293F04
:1028800000004940F0B504000E0085B03821406AD0
:1028900000F036F9606A310003681B689847002130
:1028A000606AFFF725FF0021606AFFF721FF606A79
:1028B00000F0D1F900230500984233D1052003F040
:1028C00027FE03223821606A00F063F90190019B22
:1028D00003AFAB4206DD606A03685B6998477855D1
:1028E0000135F4E70A2003F013FE3821606A00F096
:1028F00007F9B021606A3143FFF7FAFE606A797820
:1029000003681B689847606AB97803681B68984732
:10291000606A00F0A0F90023984203D1052003F07B
:10292000F7FD0123180005B0F0BD70B50500FFF7F5
:1029300038FF1823FF241840984217D01B21280085
:10294000FFF7A0FF1C2104002800FFF79BFF0028D1
:1029500001D00134E4B21E212800FFF793FF0028C4
:1029600001D00134E4B20A2003F0D2FD200070BD92
:1029700070B50400FFF7D9FF606A382100F0C0F895
:10298000AC21606AFFF7B4FE3321606AFFF7B0FE46
:102990000021606AFFF7ACFE606A00F05CF9050098
:1029A00003F080FD6061280070BD000070B5040078
:1029B00003F078FD134DA369C01AA8421DD9200069
:1029C000FFF7D6FF002817DB03F06CFD06002000A0
:1029D000FFF7F7FE002807D003F064FD801BA84234
:1029E0000ED803F0B7FDF2E72000FFF7A3FE0028A2
:1029F00002DB2000FFF704FF70BD0F204042FBE721
:102A00000E20FBE7E703000000207047F8B5050043
:102A10000E0017000024BC4208D02B68315D1B68F3
:102A200028009847002801D00134F4E72000F8BDC1
:102A300070470300FC33196ADA69914203D01B6ABC
:102A4000C018007E704701204042FBE70300FC33C2
:102A5000D8691B6AC01A01D50130FF3070470000E9
:102A6000F7B50193FA238026002504009B008360BC
:102A7000124B760008330F00456029000092036076
:102A80003200183006F0ABFF23002000FC33213069
:102A9000DD6132001D622900FF3006F0A0FF8723B0
:102AA0009B00E3185D609D606B461B782761237572
:102AB0006B461B79A57520006375FEBD34E20000EE
:102AC00070B5060018250C49006902F01DF930693F
:102AD00001F078FF2B000821307D084C4343E318B8
:102AE000595603F0BDFF0821707D454364196156B6
:102AF00003F0B6FF70BDC046A0860100ECE5000003
:102B00008A2300229B00C1540C3BC3185A609A6070
:102B1000012383757047020010B5FC325368946836
:102B20000133DBB29C4202D054680155536010BDA2
:102B3000F7B500240500170001932000A24227D01A
:102B40002B00FC33DC611C620122286901F078FF54
:102B5000A0421CD02E001836286901F0F1FF013484
:102B600001003000FFF7D7FF2869A74206D001F027
:102B700047FF0221286901F04DFFEDE701F037FF23
:102B8000019B002B03D00321286901F043FFE0B231
:102B9000FEBD10B50123FFF7CBFF10BD002210B51D
:102BA000837D93420DD087239B00C4186368A4687B
:102BB0000133DBB2A34204D02130FF30FFF7ABFF7B
:102BC0000122100010BD0300FC3399685A6891423D
:102BD00006D09A68805C9A680132D2B29A607047D7
:102BE00001204042FBE700228A2370B59B008275DA
:102BF00005000E00C15C006901F022FF002806D12B
:102C00000321286901F006FF0224200070BD8723FC
:102C100028009B00EA18536894682130FF301C1B81
:102C200001D50134FF34002C0ED02C69FFF7CBFF07
:102C3000C1B2200001F042FF0028E8D10321286939
:102C400001F0E8FE0324E0E7002EDED0032128692E
:102C500001F0E0FED9E710B50121FFF7C4FF10BD78
:102C600010B51830FFF7AFFF10BD70B50400006954
:102C700001F044FF002814D0206901F04DFF002826
:102C800010D0206901F0BCFE0321206901F0C2FED2
:102C90008C239B00E558002D39D10023FC34E361DF
:102CA000236270BD206901F041FF002809D020692E
:102CB00001F037FF002804D0206901F03CFF002814
:102CC000DFD0206901F032FF002826D1206901F011
:102CD0001EFF0028E5D0206901F02DFF002837D025
:102CE00087239B00E218536892689B1A01D5013331
:102CF000FF33FF21002B05D020002130FF30FFF7EC
:102D000062FFC1B2206901F0EBFEA075C9E723683C
:102D100020001B699847A847BFE7206901F070FEB3
:102D20002069032101F076FE206901F004FF0028EC
:102D3000B7D0872300229B00E3185A609A600123D2
:102D4000A3758B239B00E3589342AAD09847A8E72A
:102D50002200FC32D369126A0133DBB2206993424C
:102D600006D101F044FE0321206901F053FE98E7EB
:102D700001F0E6FE010020001830FFF7CCFE2069CC
:102D800001F03EFEEFE7000010B50248FFF76DFFCF
:102D900010BDC0461C05002010B5152314220249A1
:102DA0000248FFF75DFE10BDF80F00201C05002053
:102DB0000223FF33038080235B02436080235B0197
:102DC000836080235B00C360F03B03610A4B436177
:102DD0000A4B83610A4BC3610A4B0362FA239B00CF
:102DE0004362FA231B018362FA239B01C362FA2325
:102DF0001B0203637047C0460000D2420000D0406F
:102E000085EBD13E17B7D13C10B50248FFF7D0FF94
:102E100010BDC04650070020F8B504001F00002A6E
:102E200004D0012A28D08023DB0000E04E4BA360B1
:102E3000002902D1A3681B01A360A668A588E088C9
:102E400075434643AD0AB60A2561E660002D15D1EB
:102E50006561636901335B08002F15D0012F4CD0E9
:102E60008023A0699B016843C018E3695E43801B0F
:102E70002062800B6062F8BD3C4BD8E7B0022900AD
:102E800003F044FF6061E4E7402B05D8F9235B00C1
:102E9000A361343BE361E3E7802B04D885239B00E7
:102EA000A361334BF6E7C02B03D8324BA361324BFF
:102EB000F0E780225200934204D89C239B00A36138
:102EC0002E4BE7E79C225200934204D87023FF3335
:102ED000A3618D33DEE7CD225200934203D8D22383
:102EE000A3612933D6E7264A934203D81823A36166
:102EF000063BCFE7A761E761B2E7432B05D8812303
:102F00009B00A361AE23FF33C4E7852B04D88A233B
:102F10009B00A3611B4BBDE7C82B03D81A4BA361D1
:102F20001A4BB7E785225200934203D8184BA3618E
:102F3000184BAFE74E22FF32934204D87823FF3379
:102F4000A361DE23DFE7CD225200934204D802239F
:102F5000FF33A3612823D6E7094A934200D97FE7CC
:102F60003723A3610C3B95E717750000E70F0000BE
:102F7000D10200003F0200007B030000FE030000BE
:102F80009A020000C1020000530200006303000027
:102F900082020000DF0300000022024B9A622C3301
:102FA0001A7070478407002070B515001E00084C89
:102FB000C9B22000FFF7A4FDE9B22000FFF7EEFD43
:102FC00031002000FFF7EAFD2000FFF744FE70BD4E
:102FD0001C05002010B50400032380222921FFF7DF
:102FE000E3FF2000002381222921FFF7DDFF2000DD
:102FF000002386222921FFF7D7FF002380222921E1
:103000002000FFF7D1FF10BDF8B51700154CCEB268
:10301000310005002000FFF773FDF9B22000FFF733
:10302000BDFD2000FFF717FE310001222000FFF751
:10303000B0FD03F03DFA06002000FFF707FD002871
:103040000BD1AB6A002BF7D003F032FAAB6A801BCE
:103050009842F1D301232C352B702000FFF700FE9E
:10306000C0B2F8BD1C05002010B58C222921040037
:10307000FFF7CAFF8D22207029212000FFF7C4FF2F
:103080008E22607029212000FFF7BEFF8F22A070E2
:1030900029212000FFF7B8FF62782378120213433A
:1030A000A380A378E07000021843E08010BD000008
:1030B00070B50400032380222921FFF775FF0E203D
:1030C00003F026FA2000FFF7CFFF2921200000237C
:1030D0008022FFF769FF0020E18881420FD0A58898
:1030E000280003F013FE80B2012802D8064B9D424F
:1030F00006D8002320001A001900FFF78DFE70BDCE
:1031000001204042FBE7C04624130000802210B596
:1031100004005200002106F062FC200010BD0000F7
:1031200010B50248FFF7F2FF10BDC046B4070020FB
:10313000962110B58901024802F04AFF10BDC04631
:1031400038090020F7B51C000191170003F0AAF917
:10315000FA239B006343060000240093BC420DDA6F
:103160000A4D280003F094F8002807D0280003F047
:1031700053F8019A631C10551CB2F1E703F092F961
:10318000009B801B9842E9D92000FEBD3809002031
:10319000F7B506000D0001921F00002913D00A4C5C
:1031A000200003F075F8002803D0200003F034F865
:1031B000F5E70649200001F0DCF93B00019A2900FF
:1031C0003000FFF7BFFFF7BD3809002058E20000CC
:1031D000F7B506000D0001921F00002913D00A4C1C
:1031E000200003F055F8002803D0200003F014F865
:1031F000F5E70649200001F0BCF93B00019A2900DF
:103200003000FFF79FFFF7BD38090020F5E300000D
:1032100070B5040003F046F9FA2305009B005C43F7
:10322000094E300003F034F8002807D0300002F0D7
:10323000F3FFC1B2054801F093FDF1E703F032F965
:10324000401BA042ECD970BD3809002004100020BA
:1032500070B50400150000292AD11749174801F05C
:1032600088F90120FFF7D4FF642003F051F9802290
:1032700000215200200006F0B2FB80222B005200F9
:1032800021002000FFF75EFF21000D4801F071F9D9
:103290000C49200007F02BFC03000020834206D1DC
:1032A0000949200007F023FC43425841C0B270BDD9
:1032B0000129D6D10549D1E722E3000038090020D1
:1032C000041000203CE300004FE300002CE300006A
:1032D00010B500290AD10749074801F04AF9012031
:1032E000FFF796FF642003F013F910BD0129F6D112
:1032F0000249F1E78BE30000380900209BE300005E
:1033000010B50748002909D0064901F032F901201B
:10331000FFF77EFF642003F0FBF810BD0249F4E7DD
:1033200038090020ACE30000BBE3000010B50748FB
:10333000002909D0064901F01CF90120FFF768FFB8
:10334000642003F0E5F810BD0249F4E738090020D5
:103350006CE300007BE3000070B58AB00E1C150022
:103360000021202202A806F03AFB1049301C04F08C
:103370004BFA04F07BFB0A2100B203F037FE301C4D
:103380000CB204F073FB230002B20095084902A8B6
:1033900007F086FB02A9074801F0EBF80120FFF7D0
:1033A00037FF642003F0B4F80AB070BD000020417C
:1033B000E0E300003809002070B58AB0161C0D004B
:1033C0002022002102A806F00AFB301C04F04EFB6C
:1033D0000F4904B2301C04F017FA04F047FB0A212D
:1033E00000B203F003FE09B223002A00009102A8F4
:1033F000084907F055FB02A9074801F0BAF8012077
:10340000FFF706FF642003F083F80AB070BDC046E2
:1034100000002041CBE300003809002070B58AB0DD
:10342000161C0D002022002102A806F0D8FA301C3C
:1034300004F01CFB0F4904B2301C04F0E5F904F061
:1034400015FB0A2100B203F0D1FD09B223002A00C6
:10345000009102A8084907F023FB02A9074801F0E0
:1034600088F80120FFF7D4FE642003F051F80AB079
:1034700070BDC0460000204163E200003809002012
:1034800010B50C0088B020220021684606F0A7FA8B
:1034900022000849684607F003FB6946064801F028
:1034A00068F80120FFF7B4FE642003F031F808B09B
:1034B00010BDC04641E400003809002030B50D00C1
:1034C00089B0204C2049002A1DD02049012A1AD059
:1034D0001F49022A17D01F49032A14D01E49042A63
:1034E00011D01E49052A0ED01D49062A0BD01D49B0
:1034F000072A08D01C49082A05D01C49092A02D0ED
:103500000A2A03D11A49200001F033F80120FFF7FD
:103510007FFE642002F0FCFF20220021684606F0B6
:103520005EFA2A001349684607F0BAFA6946200095
:1035300001F01FF80120FFF76BFE642002F0E8FFA6
:1035400009B030BD3809002074E2000082E20000BA
:1035500090E200009EE20000B2E20000C0E2000043
:10356000D1E20000DFE20000EDE20000FBE200003B
:1035700009E3000017E3000070B50E0090B01500DD
:103580001C00002913D040220021684606F027FACB
:1035900032001E49684607F083FA69461C4800F06D
:1035A000E8FF0120FFF734FE642002F0B1FF002D98
:1035B00013D040220021684606F011FA2A0015496E
:1035C000684607F06DFA6946114800F0D2FF012005
:1035D000FFF71EFE642002F09BFF002C13D0402258
:1035E0000021684606F0FBF922000B49684607F007
:1035F00057FA6946064800F0BCFF0120FFF708FEB5
:10360000642002F085FF10B070BDC046FFE30000EB
:103610003809002015E400002BE4000070B5040018
:10362000080004F043FA637A0C4A9B00051C985882
:1036300004F03CFA011C281C03F00EFF051CA062DC
:10364000A06C04F033FA291C04F0DEF8051C606C51
:1036500004F02CFA291C03F065FD70BDDCE40000C9
:10366000F8B50400080004F021FAE37A284A9B0028
:10367000051C985804F01AFA011C281C03F0ECFEF3
:10368000051C606A04F012FA291C04F0BDF8061C3F
:10369000E06904F00BFA011C301C03F043FD291C07
:1036A00004F0B2F8061C206904F000FA011C301C7A
:1036B00003F038FD291C04F0A7F8061CE06804F0AC
:1036C000F5F9011C301C03F02DFD061C206A04F0E6
:1036D000EDF9291C04F098F8071CA06904F0E6F93C
:1036E000011C381C03F01EFD291C04F08DF8051C7C
:1036F000606904F0DBF9011C281C03F013FDA16ACA
:1037000004F082F8011C301C03F00CFDF8BDC0462B
:10371000DCE40000064B10B51900CA7C9B7C120249
:1037200013430A7D012112041A4300F068FA10BD08
:1037300051E4000037B52D4D040069782B7809025B
:103740000B43A9780904194300F038FB002802DA7A
:103750000123637137BD2979EB7809020B4369793D
:10376000A07109041943200000F028FB0028EFDBBA
:10377000A97A6B7A09020B43E97AE07109041943CB
:10378000200000F01BFB0028E2DB2300C1B2413324
:10379000EA791970AB79120213432A7A20001204D5
:1037A0001A4300F02CFA0028D2DB236820005B6863
:1037B00098470028CCDB200000F0E4FA23680322BD
:1037C0009B6802212000984723680322DB680221BE
:1037D0002000984701A9200000F0DBFB200000F04A
:1037E000D1FA200000F0DAFBB4E7C04651E4000053
:1037F00030B504003D4B87B059781A7801AD090205
:1038000011432A0000F0E7FA21002B786A781B01A7
:10381000120913436364200044310C2200F010FBB2
:10382000F0222100636C12015B0863646B78200056
:103830001B021340AA7848311343A3640C2200F002
:10384000FFFA2100EB782A791B03120113436A79EE
:10385000200012091343E3600C31142200F0F0FA47
:10386000F02221006B7912031B041340EA88200028
:1038700052BA92B2134323611031142200F0E0FADD
:1038800021002B8920005BBA9BB2636114311022A6
:1038900000F0D6FA21006B8920005BBA9BB2A361CD
:1038A0001831102200F0CCFA2100AB8920005BBA5D
:1038B0009BB2E3611C31102200F0C2FA2100EB89B7
:1038C00020005BBA9BB223622031102200F0B8FACC
:1038D00021002B8A20005BBA9BB263622431102244
:1038E00000F0AEFA002007B030BDC0464FE4000043
:1038F00070B50400150000F0E3F923000D4E4133CC
:10390000F2791978B37912021343327A2000120443
:103910001A4300F074F9727B317BB37B12020A43C5
:103920001B041A430121032D00D80021200000F0C0
:1039300066F970BD51E4000070B51500040000F098
:10394000E5F9084B19000A7CDB7B120213434A7C21
:10395000012112041A43032D00D80021200000F099
:103960004EF970BD51E40000024B0833036001239F
:1039700043717047FCE40000002310B5437103005D
:10398000040001202C331870216308001A72FFF71D
:1039900097F8322002F0BCFD236820001B6898478E
:1039A00010BD10B57722FFF7E7FF10BD030073B518
:1039B0002C331E7804000D00002E20D16B466A4681
:1039C0005E7103231371019A0E49806B00F084FB32
:1039D0003100E06B03F00EF88021A06B294300F06A
:1039E000ABFBFF21A06B00F0A7FB05000121E06B02
:1039F00003F000F8A06B00F08BFB28B276BD01202D
:103A00004042FBE740420F00030070B52C331B78A7
:103A100004000E00002B02D1FFF7C8FF70BD0500A7
:103A200034352978006BFFF76BF8206B31000368A1
:103A30001B6898470021206BFFF7D5F801232978F0
:103A40001A00206BFFF774F8002805D0206B03687C
:103A50005B69984700B2E1E701204042DEE70000E1
:103A6000F0B51400020085B001AB19802C32177834
:103A70000500002F2ED13800002C29D07F210322F1
:103A80005E781B78A86B0B40009302AB5F711A71D4
:103A9000039A124900F020FB3900E86B02F0AAFFFC
:103AA0008021009BA86B194300F046FBA719BC427C
:103AB00006D0FF21A86B00F03FFB20700134F6E731
:103AC0000121E86B02F096FFA86B00F021FB30B2F9
:103AD00005B0F0BD01204042FAE7C04640420F0069
:103AE000F0B585B0019303002C331C780500170056
:103AF000002C2CD102AB5C7103237F2602AA137128
:103B0000039A0E40806B134900F0E6FA2100E86B3F
:103B100002F070FF3100A86B00F00EFB3900A86BBB
:103B200000F00AFB0121E86B02F064FFA86B00F0D3
:103B3000EFFA019B2000002B07D031002800FFF78F
:103B400063FFC71B781E8741784205B0F0BD012096
:103B50004042FAE740420F00F8B51F0003002C3343
:103B60001B7804000E001500002B03D13B00FFF76B
:103B7000B7FFF8BD030034331978006BFEF7C0FFC0
:103B8000206B310003681B689847206B290003688D
:103B90001B689847206BFFF75EF800280AD1002FBA
:103BA000E7D031002000FFF72FFF401B451EA84142
:103BB0004042DEE70120FBE710B50023FFF7CCFF12
:103BC00010BDF7B5009308AB1F7809AB1B780C004C
:103BD0001100050016000193FFF716FF00280DDB0A
:103BE000BC40220040B2009B424013401A004240B9
:103BF000D2B2019B31002800FFF7AEFFFEBD30B509
:103C00000025140C85B0130AE4B2DBB2D2B20195E0
:103C10000094FFF7D6FF05B030BD000070B50D0071
:103C2000084904004A7B0B7B120213438A7B29005C
:103C300012041A43FFF7E3FF431C01D00020257153
:103C400070BDC046ACE4000070B5437904000A00C2
:103C5000002B13D10379002B12D1417A914204D168
:103C600002212000FFF7DAFF70BD01688D6819009E
:103C7000A8470028F4D001204042F5E70220FBE7E6
:103C80000320F9E770B5437904000A00002B13D133
:103C90000379002B12D1C17A914204D10121200075
:103CA000FFF7BCFF70BD0168CD681900A847002868
:103CB000F4D001204042F5E70220FBE70320F9E7BA
:103CC000F8B507250400104F294015407A783B7855
:103CD00012021343BA780E0012041A43FFF78FFF43
:103CE0003A79FB78120213437A79290012041A43B5
:103CF0002000FFF784FF002802D126726572F8BD0C
:103D000001204042FBE7C046ACE40000F8B50725BF
:103D100029400E0004000F4F1540FA79BB791202BA
:103D200013433A7A310012041A43FFF768FFBA7A54
:103D30007B7A12021343FA7A290012041A432000F4
:103D4000FFF75DFF002802D1A672E572F8BD0120E1
:103D50004042FBE7ACE40000036810B51B690400B7
:103D60009847074B200019000A7CDB7B12021343A3
:103D70004A7C002112041A43FFF741FF10BDC046E0
:103D8000ACE4000010B541790400002907D1FFF729
:103D900045FF002802D12000FFF7DEFF10BD022002
:103DA0004042FBE710B50400034B08330360FFF704
:103DB000E9FF200010BDC046FCE4000013B50191EE
:103DC000C9B201ACFFF720FE002803DB637818407E
:103DD000A378184116BD0300F7B501AF39802C3325
:103DE0001B7805001400002B05D10199FFF738FE60
:103DF00006003000FEBD0026B242FAD00300343384
:103E000000931978006BFEF77BFE286B3978036806
:103E10001B6898473100286BFEF7E5FE009B7A7817
:103E20001978286B0123FEF783FE06B22718A742F4
:103E3000DFD0286B03685B69984720700134F6E790
:103E40000B6810B51C00501EC4400120044202D073
:103E500090401B1A0B6010BD7FB5040001AB03AE90
:103E60001A800D0003220021300005F0B8FD320059
:103E700001992000FFF7AFFF03280FD13378727844
:103E80001B0412021343B278200013432B60182244
:103E90002900FFF7D5FF002004B070BD012040428B
:103EA000FAE7000073B5437905000E00002B46D1F8
:103EB0000379012B13D0022B43D1234B1A00D17C61
:103EC0009B7C09020B43117D090419432800FFF76D
:103ED00075FF002830D0012809D001202DE01A4BB1
:103EE0001A00917D5B7D09020B43D17DECE7002434
:103EF0002B7901942C71012B12D0022BEDD1134B95
:103F00002800DA78997812020A4301A9FFF7A4FF82
:103F10002B685B690199280098473060200076BDC6
:103F20000A4B28005A78197812020A4301A9FFF7B0
:103F300093FF2B689B69EDE704204042EFE70220E6
:103F4000FBE70320F9E7C046ACE40000A8E400006A
:103F500070B50D0011000400FFF776FE061E16D1A5
:103F60001020637A0A219840143080B202F0CEFE0D
:103F700080B202F0CDFA0A2002F0CAFA290020002D
:103F8000FFF790FF061E02D02000FFF7FBFE300077
:103F900070BD10B5427AFFF7DBFF10BD37B544792D
:103FA0000500002C1DD1A5220E21FFF705FE96224B
:103FB0000F212800FFF700FE022262212800FFF7F0
:103FC000FBFD22000E212800FFF7F6FD22000F2145
:103FD0002800FFF7F1FD01A92800FFF7DAFF200014
:103FE0003EBD02204042FBE770B50D001100040009
:103FF000FFF748FE061E16D11020E37A0A219840EA
:10400000143080B202F082FE80B202F081FA0A20FF
:1040100002F07EFA29002000FFF744FF061E02D0BE
:104020002000FFF7AFFE300070BD0000F0B50400C7
:1040300085B01E000AAB1B78103001930BAB1B78C8
:10404000170002930CAB1B780D00039300F0C4F82B
:104050002000243000F0C0F8220000234032A36387
:10406000E363137063729D4205D10A4B0A4A222111
:104070000A4805F037FC6B461B79200063716B46DC
:104080001B7A2560E3716B461B7B2771A671237237
:1040900005B0F0BD20E5000095E5000031E5000029
:1040A00030B5040085B002AD00680291039200F0C3
:1040B00044FC6B79227AE17900932068002300F0B8
:1040C000F9FD2979029A206800F05CFC206800F074
:1040D0002AFC05B030BD000007B5837A009101923B
:1040E000002B07D09A070AD5EFF310835A425341A9
:1040F000C37272B60099019AFFF7D2FF07BDDB07C2
:10410000F8D5C368014A9BB29360F3E700180040FA
:10411000837A002B05D09A0704D5C37A002B00D0F0
:1041200062B67047DB07FCD5C368024A9BB2D36016
:10413000F7E7C0460018004010B5006800F006FC24
:1041400010BD00001FB5094A094B0A49136000233E
:1041500053711371029301330193163300931622A6
:1041600001330548FFF762FF05B000BDF8080020E5
:1041700000093D00FC0F0020B4080020094B18681E
:10418000002809D1EFF310820749002A08D172B63E
:10419000BFF35F8F01320A701A6801321A607047EC
:1041A0000870F9E70409002000090020084B1A688C
:1041B000002A0CD01A68013A1A601B68002B06D13D
:1041C000044B1B78002B02D0BFF35F8F62B67047A1
:1041D0000409002000090020FF23002110B504007D
:1041E0000370FC3B41708170C170017143710C22FE
:1041F000083005F0F4FB200010BD000001220B0088
:1042000010B5134008D00D4B1A7004234370836817
:10421000002B00D0984710BD0222114204D007495C
:104220000A704370C368F3E704231942F3D0034ACA
:104230001370033343700369EAE7C0464E480041F8
:1042400010B5FFF79BFF0C4B1B8C1B071B0F0B2B99
:104250000FD80A4A9900885800280AD00F24084924
:104260000A78A24313430B70064B1978C9B2FFF7C3
:10427000C5FFFFF79BFF10BD004800410809002063
:104280003F4800414E48004100230221421D037077
:104290004370838083600373038243610376838367
:1042A0000362D37723320385C3621374537413728A
:1042B0001032C363103213705370C3641032137022
:1042C0005370036610321370537003671374537482
:1042D000021DD36784321370537093601374537448
:1042E00093611032137453741032137551749374B4
:1042F000D374143253609360D3601361536193613C
:10430000123A1370704700000023D0B504004370C8
:10431000806805F0C1F900220C4B03F06DFF060028
:10432000A0880F0005F07EF902000B003000390074
:1043300003F046FC0300207B0A00002802D0802204
:1043400012068A1818001100D0BDC04665CDCD41B7
:104350000023D0B504004370406905F09DF90022A8
:104360000C4B03F049FF0600208A0F0005F05AF9B4
:1043700002000B003000390003F022FC0300207E15
:104380000A00002802D0802212068A1818001100A4
:10439000D0BDC04665CDCD41002310B5642143702A
:1043A000406802F039FDFA23DB00C91888B210BD5D
:1043B000002310B564214370406802F0A7FC64211B
:1043C00002F02AFDC8B210BD002310B503494370A6
:1043D000406802F09BFCC0B210BDC0461027000030
:1043E000002310B503494370406802F08FFCC0B24F
:1043F00010BDC04640420F00002310B50449437071
:10440000406802F083FC642102F006FDC8B210BDD2
:1044100010270000002310B564214370406802F0AB
:1044200075FC642102F0F8FCC8B210BD002310B581
:1044300064214370406802F0EFFCC8B210BD000078
:1044400010B5024801F029FF10BDC0463809002010
:1044500010B5024801F021FF10BDC046740B0020CA
:1044600010B5024801F019FF10BDC046B00D002084
:10447000F7B501240325194F1949380000F0BDF99B
:104480001849194800F0B9F91849194800F0B5F968
:104490001849194800F0B1F91849194800F0ADF968
:1044A000184E1949300000F0A8F939000095230092
:1044B00001940022154801F05FFE3100009501943F
:1044C0001E231F22124801F057FE009501942C2351
:1044D0002D2205490F4801F04FFEF7BDEC0F0020DB
:1044E00000080042000C0042F00F002000100042C3
:1044F000F40F002000140042F80F002000180042C2
:10450000FC0F002000100020001C00423809002091
:10451000740B0020B00D0020F7B506000D000C0054
:104520008B180193019B671B9C4207D0336821784D
:104530001B683000984701340028F3D13800FEBDD5
:1045400070B5040008000D0006F0CAFA23680200E6
:1045500029005B682000984770BD10B50B1E02D083
:10456000FFF7EEFF0300180010BD10B5FFF7F5FFD1
:1045700010BD10B5FFF7F1FF10BD10B503681B6843
:10458000984710BD10B50249FFF7DAFF10BDC046CD
:104590003EE4000070B50400FFF7DFFF05002000D7
:1045A000FFF7F0FF401970BDF0B58BB06B461500FA
:1045B000002205330600DA770800012D00D80A250D
:1045C00009AC290002F028FCCAB2130037330700F7
:1045D000DBB2092902D813003033DBB2013C23706F
:1045E000002FEED121003000FFF7B7FF0BB0F0BD78
:1045F000F8B506000C00151E04D10368C9B21B688B
:104600009847F8BD0A2A0CD100290BDA2D21FFF7B3
:10461000B4FF614207002A003000FFF7C5FF3818D9
:10462000EFE7D2B221003000FFF7BEFFE9E710B597
:10463000FFF7DEFF10BD10B5002A04D10368C9B230
:104640001B68984710BDD2B2FFF7AEFFFAE710B56E
:10465000FFF7F1FF10BD0000F7B51E0008AB1B7897
:1046600031000193050033001000170004F088FFAB
:104670004B49002814D10122740064085242494B6E
:104680003800210004F07CFF00280FD10122454BA7
:1046900052423800210002F0CFFC002806D14249E6
:1046A0002800FFF74DFF04002000FEBDE0223F4B35
:1046B00012063800310002F0C9FC002801D03C4944
:1046C000EEE7E0223B4B12063800310002F0AAFC74
:1046D0000028F4D1002200233800310002F0A2FCAF
:1046E000041E07D02D212800FFF747FF8023040078
:1046F0001B06F618002300202F490093019B009A07
:10470000934208D02D4B002203F076FD009B01332D
:10471000DBB20093F2E733003A0003F051FA0F00E6
:10472000060002F0E1FC0A22019001002800FFF7D8
:104730003BFF009B0419002BB6D0019804F0ACFF9E
:1047400002000B003000390004F0D2FB06000F001D
:1047500028001B49FFF7F4FE2418009B013BDBB245
:104760000093FF2BA0D0154B00223000390004F03D
:104770004DF90F00060002F0B7FC0A22010001907B
:104780002800FFF711FF2418019804F085FF0200AC
:104790000B003000390004F0ABFB06000F00DCE733
:1047A0003CEA0000FFFFEF7F40EA0000FFFFEF411F
:1047B00044EA0000FFFFEFC10000E03F000024409A
:1047C000ECE1000037B51D00069BDBB200932B0027
:1047D000FFF742FF3EBD37B519000400069B2000DD
:1047E000DBB200930B00FFF737FF05002000FFF757
:1047F000C9FE40193EBD10007047016070479446E5
:10480000F0B59E1E721E96416246056892072F689B
:1048100036063A4332432A60072505AC24780068FF
:10482000A4012940214342680024022B00D05C03EC
:10483000114321434160F0BD30B5C0250368AD038D
:104840001C6812052A402243C0240904A402214006
:104850001143196003685A6814435C6030BD01233A
:10486000026811680B43136003681A68D207FCD40E
:10487000DA69D207F9D470470223026811680B4342
:1048800013600268D3699B07FCD4704703681A7EE3
:10489000D20702D41A7E9207FCD570470022036823
:1048A0005A8370470368187E4007C00F704703683B
:1048B000187EC0097047802302685B42117E0B435B
:1048C000137670470368588B8007C00F7047022328
:1048D0000268518B0B43538370470368187EC007EF
:1048E000C00F70470368188DC0B2704703681A7E06
:1048F000D207FCD589B201201985704701220368CF
:104900009A757047012203681A757047012302687F
:1049100011680B43136003681A68D207FCD4DA6984
:10492000D207F9D470470223026811680B43136061
:104930000268D3699B07FCD470470368DA69920761
:10494000FCD402211A688A431A6070470268936A8D
:104950005B0A5B021943916203681A7E5207FCD519
:10496000986AC0B27047000010B54900044802F0D0
:10497000CDF980B2002801D0013880B2C0B210BD9C
:10498000006CDC0270B54B080C00012105680B407F
:104990000C402E6824075B07234333432B60110030
:1049A0000468FFF7E1FF207370BD012302681168FE
:1049B0000B43136003681A68D207FCD4DA69D20784
:1049C000F9D470470223026811680B43136003682F
:1049D000DA699207FCD430215A8B8A4311001022E5
:1049E0000A435A830268D3695B07FCD4704780236B
:1049F0000268DB02116851680B4353607047000086
:104A0000036803491A685A680A405A607047C046EA
:104A1000FFFFFBFF032230B5036811401C68074D00
:104A20005A6809042A40E4061143640F5960052CB2
:104A300003D10268D3695B07FCD430BDFFFFFCFFE4
:104A400030B503680400588B8006800F022814D00C
:104A50005D8B0020AD06AD0F032D2ED0588B800747
:104A600005D55D8B0020AD06AD0F012D25D10020B1
:104A70005D8BAD06AD0F85421FD04800596A1043CB
:104A8000C90AC0B2C902014359622368002A08D189
:104A90001A7ED207FCD5588B4007C30F012058401F
:104AA0000BE0187E8007C00FF5D11A7ED207F8D52B
:104AB000C022596892020A435A6030BD0368283305
:104AC00019700368187EC007C00F03D15A8BD20734
:104AD000F8D57047588B4007C30F01205840F8E7BE
:104AE000036828331970036800201A7E520704D522
:104AF000588B01234007C00F58407047036818685F
:104B0000C006400F043843425841C0B270470368A2
:104B1000187E4007C00F70470368187EC007C00F9B
:104B200070470368588BC006C00F70470368187E33
:104B30008007C00F70470368588B0007C00F70478D
:104B400003681A68D206520F052A02D11A7E92070C
:104B5000FCD528331878C0B2704700000368104AAB
:104B6000934213D00F4A934212D00F4A934211D06E
:104B70000E4A934210D00E4A93420FD001200D4AA4
:104B80004042934201D1063040B270470020FBE71B
:104B90000120F9E70220F7E70320F5E70420F3E717
:104BA00000080042000C00420010004200140042C5
:104BB00000180042001C0042F8B5FFF7CFFF0028A4
:104BC0002CDBC3001C48FF22C01805230479C35600
:104BD00003201840C0008240C021D2438140002BF6
:104BE0001DDB1F2501201D40C026A840134D760067
:104BF000A851C0269B089B005B19B6009F593A40FC
:104C00001143995128603F2323408024E4011C4331
:104C10000B4B5C805A7852B2002AFBDBF8BD0F20A8
:104C20000340083B07489B089B001B18D8690240BB
:104C30001143D961E7E7C04648EA000000E100E01F
:104C4000000C004000ED00E0F8B504000F00160075
:104C50001D00FFF7B1FF2000FFF701FE1C21BB0084
:104C60000B4071072268090C0B43136084232268F0
:104C70009375012F1AD11021012E00D008390C4B49
:104C800069431868C00002F041F807222168024019
:104C90008B895203DB04DB0C13438B8122680304F2
:104CA0009089DB0C400B400318439081F8BDC0464F
:104CB00084000020F7B50400019308AB0D00160036
:104CC0001F78FFF723FE2000FFF776FFC02236058E
:104CD000920332400C261643C0222D049202154046
:104CE000072223683543BF072F431F60019B2168BC
:104CF00013401A0080239B0213434B602268D36940
:104D00005B07FCD4F7BD0000F8B504000F00FFF707
:104D100053FF2000FFF749FE1422236879001A6030
:104D20000C4B25681E68300001F0F0FF0A490400B2
:104D3000300001F0EBFF7D23FA215843C90001F058
:104D4000E5FFFF23241AE868053C1C409843044310
:104D5000EC60F8BD8400002040420F003F20704707
:104D600013B56B460268D9710733546819000122E4
:104D7000A04716BD10B50221006900F025FD034BC8
:104D80001B6801335A1E9341181810BD58000020AB
:104D900010B50321006900F02DFD10BD10B50321F1
:104DA000006900F0F5FC10BD10B5054C23685A1CD5
:104DB00004D103685B69984703002060180010BDA8
:104DC00058000020074B0200186810B5411C03D0A2
:104DD000012252421A6010BD0221106900F0F4FD58
:104DE000F9E7C0465800002010B51300094A040036
:104DF000D079C0B2002805D1627E002A02D00123FA
:104E0000636006E00A002069032100F0EBFD002842
:104E1000F5D010BD0C00002010B5037842220233FB
:104E200003700249024800F089FE10BD1400002002
:104E30002010002010B50178020043780020A1293D
:104E400008D1212B05D107221649174800F076FE1C
:104E5000012010BD2129FCD1202B13D1072211499B
:104E6000114800F00BFD96220E4BD20019689142BA
:104E70000ED10124D87904400AD1FA2001F052FE63
:104E80000020E6E7222B06D19278064BDA71EAE79A
:104E900001F04EFEF4E7232BDBD15288034B1A605E
:104EA000D7E7C0460C00002020100020080000209A
:104EB000012343767047000070B5050001F0F2FA57
:104EC000F423FF33002498420BD96B7E0134002B6E
:104ED00007D0054B0A20DC79631E9C41E4B201F047
:104EE00017FB200070BDC0460C000020FA220021F4
:104EF000054B92009A60054A596008321A60044ACC
:104F000019761A617047C0460410002078EA000044
:104F1000201000207047704770B50F26CB1D013957
:104F200002003240D5B22C0000093034092A00DDDD
:104F300007341C70013B8B42F2D170BDA02110B52B
:104F40000400490001F0D3FE200010BDF8B503298C
:104F500008D1304B8000C058002802D003689B68FD
:104F60009847F8BD822919D1C3B22B4D5A01AA180E
:104F700091692A4C80010C40C0218905214391612F
:104F80002749083340187021506128685B011A5C7A
:104F90008A43110030220A431A54E2E70029E0D183
:104FA000C026C1B21C4C4B01E3189A681B4DB605D4
:104FB0002A4032439A601B4A800182185A600A00D4
:104FC0000727246808325201115DB9430F000121FF
:104FD000394311559F6912493D4040182E439E6147
:104FE00058617020115D8143080010210143115563
:104FF00099680D48A218084080214903014399602F
:105000009968890B89039960402311790B431371C7
:10501000A7E7C04624100020D8140020FFFFFF8F10
:105020004C1000200C120020FF3F00F0EFF3108323
:1050300003600123436072B670470368002B02D1FE
:1050400062B6BFF36F8F7047F7B50500FC35EB69AB
:105050000600002B18D196277F00C45D6846FFF735
:10506000E5FF019BE4B2013B02D3F45DE4B2FAE751
:1050700068460193FFF7E1FF002C01D10020FEBD3F
:10508000E86AAB6AC01AFAE76846FFF7CFFF9E22CC
:105090000024019B5200013B02D3B45CE4B2FAE766
:1050A00068460193FFF7C9FF002CE7D0E86BAB6BB4
:1050B000E8E7000030B54468FC3043698069DBB242
:1050C0005A01A2189168094D800429400009014342
:1050D000916091680833890B8903916022685B01B4
:1050E000D318402219790A431A7130BDFF3F00F0EE
:1050F000F7B50500FF21FC356A6943680A401B6863
:10510000083252019A18D3790400DB0754D50126DE
:10511000D6716B6962680B405B01D318286A9A6884
:105120009204920C002822D1EA62EA6A002A40D056
:105130006A6B2E6268465A60FFF778FF9E273E2111
:10514000019B7F00013BFF315A1C2ED0962252005A
:10515000A654E25D581ED2B2002A05D066546846B5
:105160000193FFF76AFFF7BD62540300ECE7EA63BF
:10517000EA6B002A1DD000222A626A6A68465A60D9
:10518000FFF754FF96273E21019B7F00013BFF3133
:105190005A1C0AD09E225200A654E25D581ED2B27A
:1051A000002ADBD162540300F2E768460193FFF75F
:1051B00044FF2000FFF77EFF63681A686B69DBB26B
:1051C00008335B01D3187F22DA71CCE7F7B507000B
:1051D00068463C00FFF72AFF0026FF22019BFC34B3
:1051E000013B0DD3E0682169884204DBE668206951
:1051F000961B3618F4E72669E168761A013EEFE758
:1052000068460193FFF719FFE3696846002B52D106
:10521000FFF70CFF9621019B4900013B5A1C0CD063
:105220007D5C5A1EEDB2002D05D168460193FFF753
:1052300004FF2800FEBD1300F0E768460193002537
:10524000FFF7FBFEFF21A36AB54214D0E26A9A423F
:1052500011D95A1CA262626AD3181878E3682269CD
:105260000133C0B20B40934203D0E268BA18107207
:10527000E3600135E7E7E26A9A42DAD10023A362EC
:105280000133E36168469624FFF7D0FE64003E22B6
:105290000021019BFF32013B581CC6D03955B85C38
:1052A0005E1E002805D0B95438000193FFF702FFB5
:1052B000EDE73300F0E7FFF7B9FE9E21019B4900BF
:1052C000013B5A1C06D07D5C5A1EEDB2002DACD0BD
:1052D0001300F6E7684601930025FFF7AEFEFF21B5
:1052E000A36BB54202D0E26B9A421DD8E26B9A42A0
:1052F0009FD100236846A363E3619E24FFF796FED7
:1053000064003E220021019BFF32013B581C00D16A
:105310008BE73955B85C5E1E002817D0B9543800A9
:105320000193FFF7C7FEECE75A1CA263626BD31828
:105330001878E36822690133C0B20B40934203D06E
:10534000E268BA181072E3600135C9E73300DDE79F
:1053500010B50400FFF73AFF2300FC331969DA683F
:10536000914203D01B69E418207A10BD012040420D
:10537000FBE710B50400FC34FFF728FFE068236961
:10538000C01A01D50130FF3010BDF0B585B00192D3
:1053900000910500FFF71AFF02A8FFF747FE012062
:1053A0000024FF26039B40425A1E531C1FD02B0093
:1053B000FC3301998C4218D2D9681F69C91B01D5E9
:1053C0000131FF31002910D01969DF688C460100D6
:1053D000BC4506D019691F69691801373740097A39
:1053E0001F61009F39550134E3E7013ADDE702A868
:1053F0000392FFF722FE200005B0F0BD37B56B46E3
:10540000DC1D00230D0020002370FFF705FD2B6835
:105410001818286001F00AFC210001F0C3FB2B687A
:105420001818286020783EBD02220B0010B5934367
:105430000C00012B0BD10D4B08341B6864011C19A7
:10544000802321795B420B432371E27110BD01F08F
:10545000EDFB210001F0DAFB0028F7D0034B083404
:105460001B6864011C197F23E371EFE7D814002047
:1054700070B50024374B012105001A201C7001F083
:1054800089FA01211A2001F0B5FA334B01211920C4
:105490001C7001F07FFA0121192001F0ABFA2023E2
:1054A0002E4A0F20D1690B43D36101222C490B787E
:1054B00013430B702B4B19788143197006211C780C
:1054C0002143197028490C7822430A701A78024047
:1054D0001A70602219780A431A70244B244A5A80A1
:1054E0005A78D209FCD1234800F0D6FF224C7F26FF
:1054F000200001F0ADFB200001F0C2FB0C210823CD
:105500002068C2788A4313430322C3702068C3789B
:105510009343013A1343C370206803783340037008
:1055200004232068067833430370206803898B4383
:105530000381C120114980000B581B021B0A0B502C
:1055400080230B60236819780A431A7001232B709B
:1055500070BDC046411000204010002000040040F3
:10556000584400413C44004159440041000C004073
:1055700006400000AD5F0000D814002000E100E00C
:105580000078002810D00121084B1B681A898A4333
:105590001A810822198B0A431A830422198B0A43A1
:1055A0001A830022024B1A607047C046D8140020AC
:1055B000D014002010B50F4A93699B0B9B03936195
:1055C00013680222FF331A729879823A02439A7161
:1055D0001A7A9207FCD57F24074A2140937A080063
:1055E000A3431900802301439172917A5B420B43DC
:1055F000937210BDD81400200050004110B50B79F3
:105600000C00002B0CD10800FFF714FC002801D07F
:10561000012010BD094A93699B0B9B039361F7E737
:1056200001F004FB210001F0E1FA0028F0D1034A67
:1056300093699B0B9B039361EBE7C046D814002052
:10564000F8B50D00832A19D1CBB2434C5A01A218E8
:1056500091694248AD010840C0218905014391612B
:105660003F4920686D187021083355615B011A5C51
:105670008A43110040220A431A54F8BD022A65D118
:10568000384B8A00D058002802D003689B6998479D
:10569000A020400000F08EFF80270600324B7F00E4
:1056A00003602D4B002143603A00083004F097F965
:1056B000340096220023FC345200E360A36223618D
:1056C0006561E361A7612362E362B3541032A363AF
:1056D000E363B3543E223800FF32B35404F062F95E
:1056E0006062380004F05EF92B006063FF201A4905
:1056F00003405A018A189168184F08330F40C0219F
:105700008905394307279160134A5B011168AD0091
:105710005A5CBA43170003223A435A5461697368CA
:10572000014049015918636A4B60736862691B68DC
:10573000024052019B1801221B18997A30000A433B
:105740009A72FFF7B7FC074BEE5096E7110028005E
:10575000FFF7FCFB91E7C046D8140020FFFFFF8F46
:105760004C10002024100020A8EA000070B50500AD
:105770000124064BA200D258002A06D0210028009E
:105780000134FFF75DFF0A2CF3D170BD5C000020EF
:105790000B4BCAB20B488901C9185301C318596190
:1057A00099690832890B89039961036852019A1833
:1057B0000223D3715179823B0B4353717047C0462A
:1057C0004C100020D8140020084B8A00D05810B587
:1057D000002803D00368DB68984710BDC9B2044BAA
:1057E0004901591888688004800CF6E724100020CD
:1057F000D814002010B50C00FFF7E6FF00280CD0ED
:10580000064BE4B21B68083464011C1980236279DA
:105810005B42134363710223E37110BDD81400206F
:1058200070B5CBB2124A13485C018901891802197C
:1058300051609168104D08330D4080218902294341
:10584000402591609168890B8903916001685A0134
:105850008A1816793543157195796D06FCD55B016B
:10586000C918CB79DB07FCD500198068C0B270BDC0
:105870000C120020D8140020FF3F00F070B5140077
:1058800040220B4B0D001B68FF3359790A435A71B4
:105890000021FFF7C5FFA04200D9200000230549E1
:1058A000A34203D0CA5CEA540133F9E770BDC04695
:1058B000D81400200C12002010B5C9B20B484901C1
:1058C000421893689B049B0C3F2B0BD99468403B78
:1058D0009B04A40B9B0CA40323439360411888688A
:1058E000C0B210BD93689B0B9B03F6E7D814002051
:1058F000F0B51C002F4B85B01B6806000D0001920F
:10590000002B54D02C4F3978C9B2002902D119206C
:1059100001F070F864233B70284BAA00D05800288F
:1059200008D0036822005B680199984704002000B2
:1059300005B0F0BD29003000FFF746FF844204D9CE
:1059400029003000FFF740FF040029003000FFF776
:10595000B3FF0121EBB21A4F03935B010293029A4A
:105960003B6801989B18FF335A7A0A435A72154BC9
:10597000A901C918220004F029F8002CD7D0290069
:105980003000FFF721FF0028D1D14021039B3A6866
:1059900008335B01D3181879014319710121D971BA
:1059A000029BD318FF339A7A0A439A72BFE7012405
:1059B0006442BCE7D01400204010002024100020D6
:1059C000D81400200C12002013B56B46DC1D2200F9
:1059D0000123FFF78DFF012801D1207816BD01209A
:1059E0004042FBE7F0B51E003A4B85B01B680F0044
:1059F0000192002B3FD08023DB019E423BD8364CE6
:105A00002178C9B2002902D11A2000F0F3FF6423E3
:105A100000252370314BBA01D3180293002E2CD0ED
:105A20002F4B1B680393FF233B401C00009308345B
:105A3000039B64011C19A379DB0921D0294B2A4956
:105A4000186801F063F9294B1721584301F05EF9FA
:105A5000274BE279920713D4DA5D002A01D101388D
:105A6000F7D20122DA55009B5A011D4B9B189A6907
:105A7000920B92039A6101256D42280005B0F0BD9A
:105A800000221B4B3400DA55402E00D9402422005E
:105A90000199029803F09AFF009BA1045A01104B50
:105AA000890C9B18029A2D195A619A69361B920B20
:105AB00092030A439A61009B039A08335B01D3184F
:105AC0000222DA715979823A0A435A71019B1B19F1
:105AD0000193A3E7D0140020411000204C100020B7
:105AE000D81400208400002040420F0070110100F3
:105AF0004310002070B50D001C000D4BAE01F618D0
:105B000011003000220003F061FFEDB209496D0180
:105B10004D196E61AB69084A20001340AB61AB6957
:105B2000A2049B0B920C9B031343AB6170BDC04658
:105B30004C100020D8140020FF3F00F0F7B5104BA8
:105B400001901B780F001500002B0CD10D4B160097
:105B50001C78002C09D00C4E0C483488201864198D
:105B600003F034FF34802800FEBD002EFBD03A192C
:105B7000330000210198FFF7BDFF2418361AF4E71F
:105B8000CC130020CD140020CE140020CD13002013
:105B9000F8B5002000AF0E001500012A27D9D31D4B
:105BA0006A46DB08DB00D31A9D46080004F098FF24
:105BB0006C460323022200210130400020706370F4
:105BC000AA420DD2307800280AD0531CDBB201362D
:105BD000A0549D4203D00232E154D2B2F0E72A0031
:105BE00021000448FFF7AAFF431E9841C0B2BD46FA
:105BF000F8BDC04620100020F0B50024012685B075
:105C0000184B0F0069461E7005000094FFF7F6FB65
:105C1000154B01A90B806A3BFF3BCB716E3B0B72AE
:105C2000009B8C7109334B800E4B4E7108711C70B8
:105C30003A00092F0FD00D4F09223E700C4E28005C
:105C400000943480FFF77AFF69462800FFF7D6FBFF
:105C5000328808493C702800FFF770FF012005B02A
:105C6000F0BDC046CC13002009020000CD14002076
:105C7000CE140020CD130020F0B5CF7893B00500EE
:105C80000E00022F09D1C9882D48FFF7B5FF441E29
:105C9000A041C4B2200013B0F0BD00F0C7FF310036
:105CA00000F094FF002803D0C417241AE40FF1E792
:105CB000012F0FD1F288082A0AD02249112A13D8BD
:105CC000D2B2002A10D02800FFF738FF0124E1E704
:105CD0001D49F5E70400032FDCD1B378002B05D173
:105CE000F2881A49032AEBD90A78ECE7022B06D18D
:105CF000B27917492800FFF74BFF0400CAE7012BD0
:105D000002D1B2791349F5E7032BC3D1124B01A994
:105D10001868FFF701F9114B03A91868FFF7FCF8A1
:105D20000F4B05A91868FFF7F7F80E4B07A918687D
:105D3000FFF7F2F86B460533DC77B27901A9D9E7B2
:105D400020100020EBEA0000FDEA0000DAEA000083
:105D5000C8EA0000DEEA00000CA0800040A080003D
:105D600044A0800048A0800037B5040048780D00AA
:105D70000B2810D800F0C0FF061B0F2B0F40456DFD
:105D8000494C6669097801AA002906D102231180CD
:105D90002000FFF7AFFE01203EBD002313802E4BF5
:105DA0001B78012B00D1137002230021F0E78A78C1
:105DB0000023012A03D101AA1380284BF0E7264AC9
:105DC0001370274A93699B0B9B039361E3E78D78DC
:105DD000012D06D10021214B01AA1D7011702B004D
:105DE000D6E70120002DD7D11B4B1D4A18709369AF
:105DF0009B0B9B039361CFE789782000FFF7DAFBC9
:105E0000C9E72000FFF738FFC6E70123154ACCE7B2
:105E10000B780020DB06BFD12000FFF7A7FC2A206B
:105E2000AA78104BFF301A6002230D4A11680C5CEF
:105E300023434A240B54FF340B5D2938FF380343B6
:105E40000B55D4E70123084AAFE78A78064B1A605E
:105E5000B7E70020A0E7C046421000204A1000200B
:105E6000D8140020D0140020D4140020474BF7B5DC
:105E70001C780600002C7CD1454D2B689B8B1B07A2
:105E80000ED521002000FFF761F82A6810231100C9
:105E9000FF31887A03438B723E4B1C600823938347
:105EA0002B689A8B52071FD504229A833A4A13789B
:105EB000002B0AD01378013BDBB213701378002B50
:105EC00003D101211A2000F095FD344A1378002BEC
:105ED0000AD01378013BDBB213701378002B03D187
:105EE0000121192000F086FD2B68FF331A7AD206B3
:105EF0001ED510221A72597930320A435A71602322
:105F0000274930000A781A4234D1FFF72DFF2B6859
:105F1000FF33002831D08022997952420A439A7186
:105F20001A7A520604D540221A72597A0A435A72D2
:105F3000012427002B681B8CA343DBB20193019B38
:105F400023413B4212D023002A6808335B01D31857
:105F5000DA79D20702D4DB799B0707D5114BA2006F
:105F6000D05800280DD003681B6898470134082CCE
:105F7000E5D1F7BDFFF742FBC9E720210A4A91713D
:105F8000CEE7E1B23000FFF74FFAEFE7CD14002083
:105F9000D8140020D0140020411000204010002010
:105FA0000C12002024100020FF50004110B50248C0
:105FB000FFF75CFF10BDC04620100020014B024AD5
:105FC0001A607047D814002000500041012070472B
:105FD00010B50368014A1B6A984710BD13040000FE
:105FE0000300FC33D9699A69914203D0DB69C01878
:105FF000007D704701204042FBE710B504000069B6
:10600000FEF72DFC22000023FC329361D36186222F
:106010009200A4186360A36010BDF02001403039E5
:10602000484248417047F0231B0119408023062055
:106030009B0099420AD00133FF330130994205D0C9
:10604000802302385B00994200D0002070470F2067
:1060500001400020012903D00239481E8141481C1B
:10606000704700008923F0B5182685B002919B0087
:106070000400C05C330008214343324D1700EB1885
:10608000595600F0EDFC304B0821E05C33004343EF
:10609000EB18595600F0E4FC2C4BE25C0393022A07
:1060A00009D11133E05CFF2805D008214643AE1921
:1060B000715600F0D5FC8A26B600A05DFF2819D0E5
:1060C000012100F067FC1822A35D21495A43AB5619
:1060D000AD18DB0158188B21890060501D49012241
:1060E0005B188C218900635069688A408D21890082
:1060F00062501A600122029B11002069FEF7A4FD84
:1061000039002000FFF78FFF390005002000FFF75E
:106110009EFF390006002000FFF77FFF330000904C
:10612000290020690122FEF76AFB0B4B2069E25C23
:10613000039BE15CFEF780FB2069FEF79DFB05B049
:10614000F0BDC046ECE5000025020000270200007B
:10615000184400411444004126020000802210B57A
:1061600004005200002103F03AFC23000022FC331B
:106170005A6020009A6010BDF7B51D0008AB1B786F
:106180000400009309AB1B781600019300234360C1
:10619000FA239B008360114B0F0008330360143017
:1061A000FFF7DCFF20001D30FF30FFF7D7FF89230A
:1061B0006A469B002761E654094B1278E554094B67
:1061C0002000E2546A46084B1279E2548A22293BA5
:1061D000FF3B9200A3541032A354FEBD10EB00000D
:1061E0002502000026020000270200000300FC3305
:1061F00059689A68914204DB5A689868801AFF309F
:10620000704798685B68C01A0138F9E710B51D300F
:10621000FF30FFF7EBFF10BD030070B5FC33D96909
:106220009A69040091421AD0DA698218157DDA69F8
:106230000132D2B2DA618A239B00E35CFF2B0CD0DF
:1062400020001430FFF7D2FF0A2806DD8C238D22B0
:106250009B009200E358A2581A60280070BD0125E7
:106260006D42E8E70300FC3358689B68C01A01D50B
:106270000130FF30704710B5040020001D30FF30A2
:10628000FFF7F0FF0028F8D12069FEF7FFFA10BDF4
:1062900010B51430FFF7E6FF10BD10B5040000691B
:1062A000FEF710FB002805D02069FEF71BFB2069D4
:1062B000FEF70DFB2069FEF7F5FA002820D02069D3
:1062C000FEF710FB2200FC329369D1690133DBB287
:1062D0008B4203D091696118087593618A239B00F2
:1062E000E35CFF2B0CD020001430FFF77FFF092860
:1062F00006DC8B238D229B009200E358A2581A6083
:106300002069FEF7EAFA00281AD020001D30FF307D
:10631000FFF7A8FF002822D086239B00E318996886
:106320005A68914218D08E219A684900A218515C8F
:106330009A680132D2B29A60C9B22069FEF7D6FAE1
:106340002069FEF7B4FA002805D02069FEF7B3FAF9
:106350002069FEF7A3FA10BD01214942ECE720694C
:10636000FEF7D0FAECE7000070B5040000690D00FC
:10637000FEF7B3FA00283ED1FF2686239B00E318E0
:106380005A689968013232408A4223D1EFF3108370
:10639000DB070DD41E4B5B68DB05DB0DEDD0103B3E
:1063A0005BB2002B0DDB9B08C0331A4A9B009B5845
:1063B0002069FEF792FA0028DFD02000FFF76DFF7A
:1063C000DBE70F221340083B9B08134A9B009B18F6
:1063D0001B68EDE75A68013216409A68964205D06C
:1063E0008E215A684900A21855545E602069FEF754
:1063F00085FA012070BD20001D30FF30FFF732FF0D
:106400000028B9D129002069FEF770FAF1E7C046EB
:1064100000ED00E000E100E01CED00E0FEE7FEE73B
:10642000034B10B51B68002B00D0984710BDC04629
:10643000DC15002070B50F490F4CA14204D100F0CB
:10644000DFF800F09FF8FEE70C4D00238D42F6D0F8
:10645000CA18E818A24205D3094B8242EFD0094975
:10646000002204E0006804331060F1E704C38B42AB
:10647000FCD3E4E70000002094020020D4EF0000E9
:10648000940200200016002010B500F064F80028E7
:1064900001D100F055F810BD014B18607047C0469F
:1064A000DC150020014B18687047C046E01500203D
:1064B000F7B51348012284461249134C8E6863686D
:1064C00005689B0E1340019288686268019F920ED6
:1064D0003A4067463F6893420ED1BD420CD1864296
:1064E0000AD35B19FA254868AD00861B07486B4341
:1064F0007043000DC018FEBD3D0013000600E3E729
:10650000E015002010E000E000ED00E0555500002F
:1065100070B5041E10D0FFF7CBFF050000F01AF88D
:10652000FFF7C6FF054B401B9842F7D9FA23013C01
:106530009B00ED18002CF3D170BDC046E7030000AE
:1065400010B5034A13680133136000F0F9FA10BD67
:10655000E0150020704700207047704710B5FCF729
:1065600089F8FCF77BF8FFF7F5FF034B002BF8D019
:1065700000E000BFF5E7C0460000000010B5FFF7DF
:10658000EDFF000010B500F0EBF803F0E7F9FFF7BE
:10659000E4FF0120FFF7BCFF054C2000FEF768FF79
:1065A0002000FEF7EDFFFFF7E9FF002010BDC04619
:1065B0002010002010B503F0F5F910BD10B503F060
:1065C000FBF910BD10B50200EFF3108172B60A4B53
:1065D0001868002801D10948186018688218EFF37C
:1065E0000884A24204D21A60002900D162B610BD0C
:1065F00001204042F8E7C046E415002000160020C4
:106600001E2270B546484749436893431C3A1343DA
:10661000436008238C6923438B61434C434B9C822A
:106620009C8A14439C82DC681442FCD00124404ABA
:1066300014701578254203D055786DB2002DF8DB23
:1066400001249460547864B2002CFBDB394C546014
:10665000547864B2002CFBDB8224E401548054782B
:1066600064B2002CFBDB02249C840E34DD682542DE
:10667000FCD0314CDC621024DD682542FCD09D8CBE
:106680002E4C2C439C841024DD682542FCD002242F
:106690009D8C80262C439C844024DD683542FCD0B0
:1066A000DD682542F9D01024DD682542FCD00024A5
:1066B0009460547864B2002CFBDB214C5460547815
:1066C00064B2002CFBDB1C6A1E4D2C4080251C6232
:1066D0001C6AAC431C62032393601B4B53605378CA
:1066E0005BB2002BFBDB0023FF240B72174A4B72BB
:1066F0008B72CB72164B1A60164B174A1B681168C7
:106700009A065B01C90E2340520F12020B4313433A
:10671000124A1385802342681343436070BDC0460C
:1067200000400041000400400C060000000800404A
:10673000000C004001050100B905FF7D040A0000BE
:1067400000070300FFFCFFFF03060100006CDC02F2
:10675000840000202460800020608000004000420F
:10676000FA212D4B10B51868890000F0CFFA2B4B99
:10677000013898424FD82A492A4A4860C020136AF3
:1067800000061B021B0A0343136200238B600733BE
:106790000B608021136A09061B021B0A0B4313625C
:1067A000FC22214B196A0A431A62FF22196A12025B
:1067B0000A431A62A022196AD2020A431A621B4BC8
:1067C0001C005A7852B2002AFBDB194A5A80194B36
:1067D0001A00597EC9090129FBD0C8218900998076
:1067E0000521D970537EDB09012BFBD0C02300208B
:1067F0005B011361907000F023F863785BB2002BAB
:10680000FBDB0D4B0D4A6380D379DB09012BFBD0F9
:106810004123537010BDFEE784000020FFFFFF00FE
:1068200010E000E000ED00E000040040000C00403B
:106830001E4000000040004221400000004800428D
:106840001F4900B50B004A7ED209012AFBD001384E
:106850000A282FD800F050FA1B2E2E2E2E2E062E90
:106860002E2411001A6917490A400F211A615A781B
:106870008A43110001220A4310E01A6911490A40B3
:106880000F211A615A788A4311000322F3E71A692B
:106890000C490A400F211A615A788A435A7000BD88
:1068A0001A6908490A400F211A615A788A4311006F
:1068B0000222E0E7F022196912050A43F3E7C04615
:1068C00000400042FFFFFFF010B50400052800D88B
:1068D0000E340121200000F0C3F80E2C0DD1284BFE
:1068E0001900DA79D209012AFBD002201A788243F2
:1068F0001A70CB79DB09012BFBD022490B004A7EB1
:10690000D209012AFBD0182262431F4CA418207C14
:106910001F240A692040A24302430A615A7ED20919
:10692000012AFBD0022219780A431A705A7ED20932
:10693000012AFBD00222197B0A431A7301221A761C
:106940005A7ED209012AFBD00222197B0A431A730C
:106950001A7ED207FCD5588B80B25A7ED209012A02
:10696000FBD002211A788A431A705A7ED209012A72
:10697000FBD0064B1A68064B196800F067F810BD8B
:106980000048004200400042ECE500008C0000207E
:1069900088000020182310B508244343134AD01858
:1069A0000457013412D001249A5643689C400329AD
:1069B0000CD808000E49D2015218D318403300F009
:1069C0009BF90210060B02211970546010BD0621BC
:1069D000197054609461F9E706211970546054618C
:1069E000F4E7022119709460F0E7C046ECE500007E
:1069F000004400411823F0B508245843114A1318E5
:106A00001C5701341BD0012635005F688356BD40FA
:106A10000D4ADB019A18906805420BD10C00601EEC
:106A20008441D2194032107834400336A400B04378
:106A300020431070044A9B18002901D15D61F0BD0C
:106A40009D61FCE7ECE5000000440041914202D06A
:106A500002D98A1AD0407047521A9040FBE70000D2
:106A60001822424370B52D4E0300B218127A52B26A
:106A7000140001320ED0481C00240C280AD800F063
:106A80003BF9071F1F1F1F1F1F1F1F0B0B0B0B00A7
:106A900001246442200070BD092905D1002118009D
:106AA000FFF778FF0024F5E70A2901D10839F6E756
:106AB00000240B29EED10A391800FFF76BFFE9E734
:106AC000182201205343F218F3565568144ADB018B
:106AD0006C089B18C9B228401C1900280ED00F2042
:106AE000303422780901024011434122C9B25B19B6
:106AF0002170403319780A431A70D3E722000F2619
:106B0000303214785B19B443214311704122403371
:106B1000197804000A431A70BCE7C046ECE500008F
:106B200000440041014B18607047C04690000020AF
:106B30000122024B52421A607047C046900000206A
:106B4000124A1368591C20D0013B1360002B1CD142
:106B500072B60F4B01221900187D1042FCD0202282
:106B6000188BFF3202431A830A4ADA610A4A1A80F2
:106B700001230A7D1A42FCD0BFF34F8F074B084A0E
:106B8000DA60BFF34F8FC046FDE7704790000020EA
:106B9000004000410210000002A5FFFF00ED00E0F0
:106BA0000400FA0570B50E0000254468002C0BD0D7
:106BB000236831005B6820009847002802DB2D180D
:106BC000E468F3E701256D42280070BD70B50D0043
:106BD0004468002C08D0236829009B68200098474F
:106BE000002802D1E468F4E7200070BD70B50D0004
:106BF0004468002C08D0236829001B6820009847AF
:106C0000002802D1E468F4E7200070BD70B50D00E3
:106C10004468002C08D023682900DB6820009847CE
:106C2000002802D1E468F4E7200070BD0121054A84
:106C300010B5136804480B4003D1044C4360048032
:106C4000116010BDE8150020EC15002002040000C2
:106C500070B50400012304CC0500117820000B431B
:106C6000137080220021520002F0B9FE2B689A783E
:106C7000D207FCD49A789207F9D45C6270BD000008
:106C80001F22144BF0B51B68590B9C0C9B01114043
:106C900014405B0F914200D105211F2C00D1023C12
:106CA000072B00D1043B02688F01158D0A491F266E
:106CB00029403943118505683440298D0A00B243C3
:106CC00022432A8500681903028D044B13400B43AD
:106CD0000385F0BD246080003FF8FFFFFF8FFFFFBA
:106CE0000B0010B50100180002F01AFE10BD10B51F
:106CF000FFF764FC10BD000002B47146490849006A
:106D0000095C49008E4402BC7047C046002243081B
:106D10008B4274D303098B425FD3030A8B4244D363
:106D2000030B8B4228D3030C8B420DD3FF220902A5
:106D300012BA030C8B4202D31212090265D0030B64
:106D40008B4219D300E0090AC30B8B4201D3CB035A
:106D5000C01A5241830B8B4201D38B03C01A52419C
:106D6000430B8B4201D34B03C01A5241030B8B429E
:106D700001D30B03C01A5241C30A8B4201D3CB0289
:106D8000C01A5241830A8B4201D38B02C01A52416E
:106D9000430A8B4201D34B02C01A5241030A8B4271
:106DA00001D30B02C01A5241CDD2C3098B4201D389
:106DB000CB01C01A524183098B4201D38B01C01A07
:106DC000524143098B4201D34B01C01A524103097E
:106DD0008B4201D30B01C01A5241C3088B4201D32D
:106DE000CB00C01A524183088B4201D38B00C01ADA
:106DF000524143088B4201D34B00C01A5241411A01
:106E000000D20146524110467047FFE701B500200D
:106E100000F0F0F802BDC0460029F7D076E77047D1
:106E200003460B437FD4002243088B4274D30309EB
:106E30008B425FD3030A8B4244D3030B8B4228D38C
:106E4000030C8B420DD3FF22090212BA030C8B42B2
:106E500002D31212090265D0030B8B4219D300E052
:106E6000090AC30B8B4201D3CB03C01A5241830BD7
:106E70008B4201D38B03C01A5241430B8B4201D387
:106E80004B03C01A5241030B8B4201D30B03C01AB0
:106E90005241C30A8B4201D3CB02C01A5241830A2A
:106EA0008B4201D38B02C01A5241430A8B4201D359
:106EB0004B02C01A5241030A8B4201D30B02C01A83
:106EC0005241CDD2C3098B4201D3CB01C01A5241EA
:106ED00083098B4201D38B01C01A524143098B4273
:106EE00001D34B01C01A524103098B4201D30B015C
:106EF000C01A5241C3088B4201D3CB00C01A524181
:106F000083088B4201D38B00C01A524143088B4245
:106F100001D34B00C01A5241411A00D201465241DE
:106F2000104670475DE0CA0F00D04942031000D3FD
:106F30004042534000229C4603098B422DD3030A52
:106F40008B4212D3FC22890112BA030A8B420CD362
:106F5000890192118B4208D3890192118B4204D38B
:106F600089013AD0921100E08909C3098B4201D30B
:106F7000CB01C01A524183098B4201D38B01C01A45
:106F8000524143098B4201D34B01C01A52410309BC
:106F90008B4201D30B01C01A5241C3088B4201D36B
:106FA000CB00C01A524183088B4201D38B00C01A18
:106FB0005241D9D243088B4201D34B00C01A5241EF
:106FC000411A00D20146634652415B10104601D37C
:106FD0004042002B00D54942704763465B1000D306
:106FE000404201B5002000F005F802BD0029F8D0AC
:106FF00016E770477047C0468446101C62468C46B0
:10700000191C634600E0C0461FB501F097FC00283C
:1070100001D40021C8421FBD10B501F0EFFB404272
:10702000013010BD10B501F089FC002801DB002003
:1070300010BD012010BDC04610B501F07FFC002836
:1070400001DD002010BD012010BDC04610B501F0CB
:1070500011FC002801DC002010BD012010BDC0463D
:1070600010B501F007FC002801DA002010BD012056
:1070700010BDC0468446081C6146FFE71FB500F0FE
:1070800073FB002801D40021C8421FBD10B500F0D9
:10709000F5FA4042013010BD10B500F065FB002844
:1070A00001DB002010BD012010BDC04610B500F06E
:1070B0005BFB002801DD002010BD012010BDC04693
:1070C00010B500F003FB002801DC002010BD0120FA
:1070D00010BDC04610B500F0F9FA002801DA002012
:1070E00010BD012010BDC04670B500220C4B04003D
:1070F0000D00FFF7B5FF002804D12000290002F0A1
:107100005BFA70BD064B00222000290001F0F0FE62
:1071100002F052FA80231B069C466044F1E7C04609
:107120000000E041F8B54746CE4643025B0A440002
:10713000C20F9C464800DD004B02240E5B0A000E85
:1071400080B5984626009146C90FDB00271A8A426F
:1071500029D0002F15DD00284AD1002B00D095E062
:10716000ED08FF2C00D188E06B025B0AE6B25B02FF
:10717000F605580A3043D20710430CBC9046994696
:10718000F8BD002F00D087E0601CC0B2012800DCF1
:10719000B6E0EE1A720100D5C5E0002E3DD1002206
:1071A00000260023E3E7002F00DC96E000285DD0F6
:1071B000FF2C60D08022D20413431B2F00DDECE0B3
:1071C0002022D21B18009340F8405A1E93410343DB
:1071D000ED186B017BD50134FF2C00D1B7E0012203
:1071E00007262A406B089A4D1D4015432E4029E082
:1071F000FF2CB5D08022D20413431B2F00DDB2E058
:107200002022D21B19009340F9405A1E93410B4390
:10721000ED1A6B015BD5AD01AE09300002F044FB05
:1072200005388640844265DC041B3300202001348D
:10723000E340041BA640751EAE41334307261D00E4
:1072400000241E4001224B461A40002E04D00F237A
:107250002B40042B00D004356B0100D480E70134AF
:10726000E6B2FF2C2FD1FF26002380E7002B52D15E
:10727000FF2C00D074E70A00ED08002DF3D0802326
:10728000DB032B435B025B0AFF2670E7013F002F05
:10729000BED0FF2CB1D163E7002C47D0FF2869D0C6
:1072A0008024E4047A4225431B2A00DDC5E02C003B
:1072B0002026D440B21A95406A1E954125435D1B95
:1072C00004008946A5E7AB015B0A50E700240122D0
:1072D0004B461A406B07BAD142E7002F3BD101342D
:1072E000E0B201284ADDFF2CBDD00726ED186D085D
:1072F0002E40A7E70723574D241A35401E40A1E72B
:10730000002C1BD1002D6ED1002B00D19AE00A0079
:107310001D003C0024E7013F002F00D158E7FF2C5F
:1073200000D04AE7A7E75E1B894676E7002D1CD10F
:107330000A00FF281FD004001D0011E7002D5DD1B9
:10734000002B17D180230022DB03FF260FE70A0062
:10735000FF2600230BE7002C21D1002D66D1FF284A
:10736000E9D11D0087E7012352E77A1CA7D0FA4331
:10737000FF2899D10A001D00FF24F1E6002E21D13B
:10738000002D4FD0002B4CD0ED186B019ED5314B0A
:1073900007362E4001241D4054E7012318E7FF283B
:1073A000DFD08024E4047F4225431B2F4DDC2026C0
:1073B000F61B2C00B540FC406A1E95412543ED1894
:1073C000040006E7002DCCD0002B00D153E780212C
:1073D0006046C903084203D04046084200D11D0060
:1073E0000121114047E7002B00D1B9E6EA1A50010C
:1073F00025D507265D1B2E40894623E7FF24002B59
:1074000000D1ADE680226046D203104204D040464F
:10741000104201D11D00894601224B46FF241A402B
:107420009EE62B00DD080A0000249DE67A1CC6D0EB
:10743000FF43FF28B9D11D001DE701253FE7151EB9
:1074400000D044E70022002391E60125B7E7C046BB
:10745000FFFFFF7DFFFFFFFBF8B557464E46454651
:10746000DE464402E0B546008846640A360EC70F81
:10747000002E63D0FF2E24D08023E400DB041C43C5
:10748000002399469B467F3E434642465D02D20F0B
:107490005B006D0A1B0E9046924665D0FF2B55D0BF
:1074A00080220021ED00D2047F3B1543F61A4346AB
:1074B0004A467B400F2A00D98DE06D4892008258E1
:1074C0009746002C54D108239946063BFF269B463D
:1074D000DAE70025534602291BD0032900D1BFE07B
:1074E000012928D030007F30002820DD6A0704D031
:1074F0000F222A40042A00D004352A0103D5300087
:107500005C4A80301540FE2803DCAC01640AC2B23C
:1075100001E0FF2200246402D205600ADB07104369
:1075200018433CBC90469946A246AB46F8BD0122A2
:10753000101A1B287CDD00220024ECE7002C1DD152
:1075400004239946033B00269B469DE7FF3E002D02
:1075500020D1022143464A467B400A430F2AD8D80D
:107560004548920082589746002D19D10121F1E734
:107570000C239946093BFF269B4685E7200002F035
:1075800093F97626431F9C4000237642361A99468B
:107590009B4679E74A4603231A439146032186E72F
:1075A000280002F081F9431F36189D4076360021ED
:1075B0007DE780240023E403FF22ACE7002580233D
:1075C000DB031C4228D01D4226D12B435C02640AF7
:1075D0004346FF229FE762016C01A24224D21B2195
:1075E0000025013E012710006D005200002801DB3C
:1075F000944201D8121B3D4301390029F3D11400F4
:10760000621E944125436DE7BA465946250053460C
:10761000022900D061E77CE78023DB031C4364027E
:10762000640A3B00FF2276E7121B1A210125D9E7E5
:107630009E362A00B5402C00C240651EAC41144362
:10764000620704D00F222240042A00D004346201D1
:1076500003D4A401640A00225DE7012200245AE752
:107660008024E4032C436402640AFF2253E7C046EB
:1076700044EB0000FFFFFFF784EB000070B5420011
:107680004E024C0045026D0A120EC30F760A240EFC
:10769000C90FFF2A0FD0FF2C11D00120A24200D029
:1076A00070BDB542FCD18B420DD0002AF8D1280024
:1076B000451EA841F4E70120002DF1D1EBE70120A0
:1076C000002EEDD1E9E70020EAE7C04670B54A0098
:1076D0004E02450244006D0A240EC30F760A120EB4
:1076E000C90FFF2C15D0FF2A0ED0002C15D1002A6F
:1076F00001D1002E1CD0002D14D08B4227D00220A7
:10770000013B1840013870BD002EEED002204042EF
:10771000F9E7002DFAD1FF2A0ED0002A0ED1002E53
:10772000EDD00BE001230139994308000130EAE76D
:107730000020002DE7D0E2E7002EE7D18B42DED11A
:10774000944205DD0221581E08400138DBE7002481
:10775000A24204DCB542D2D80020B542D3D2581E92
:10776000012398430130CEE730B5420044024D0278
:10777000C30F4800640A120E6D0A000EC90FFF2ADB
:1077800012D0FF280CD0002A12D1002819D1002DC8
:1077900017D1002C2BD00220013B1840013826E0E5
:1077A000002DF0D0022022E0002CFBD1FF281FD0BA
:1077B00000281FD1002D1DD10220013B18400138A7
:1077C00015E0002C0ED08B42E5D10022904204DC63
:1077D000AC42E0D80020AC4209D2581E01239843A5
:1077E000013004E00123013999430800013030BD24
:1077F000002DD7D18B42CED18242E7DD0221581E27
:1078000008400138F3E7C046F0B54E4657464546B6
:10781000DE46E0B543025B0A450083B00F1C994683
:107820002D0EC60F002D57D0FF2D24D08020DB0059
:10783000C0041843002381469A469B467F3D7C0244
:107840007A00FB0F640A120E984623D0FF2A4BD011
:10785000E30080240020E4047F3A1C43AD186B1C35
:1078600047460193534677403A000F2B48D87D494D
:107870009B00CB589F46002B00D085E008339A46EA
:10788000063B9B467C027A00FB0FFF25640A120E22
:107890009846DBD1002C00D090E0524601231A43D9
:1078A00092460120DBE74C4658461700022824D0B8
:1078B000032800D1CFE00022002301284DD1580237
:1078C000D205400AFF071043384303B03CBC904642
:1078D0009946A246AB46F0BD002B5BD104239A46E5
:1078E000033B00259B46AAE7FF35002C60D152469A
:1078F00002231A4392460220B1E7FF220023DEE76B
:107900004B461B0C9C464B462604360C180461461D
:107910003300220C6446000C43434E43504354430F
:1079200080191A0C1218964203D9802149028C46FC
:1079300064441B041B0C1004C01883015E1EB34179
:10794000800E1843130C1B199B0103431C002301D9
:1079500079D5012362081C401443019A7F32002A22
:107960004DDD630704D00F232340042B00D00434E3
:10797000230103D53C4B019A1C408032FE2ABCDC1B
:10798000A3015B0AD2B29AE70C239A46093BFF2572
:107990009B4654E7180001F087FF4A46431F7625AF
:1079A0009A4000236D4291462D1A9A469B4646E71F
:1079B000524603231A439246032050E7200001F069
:1079C00073FF431F2D1A9C40763D002047E780231C
:1079D0000027DB03FF2272E7424666E74C4632008F
:1079E000584662E780234A46DB031A4222D01C42F3
:1079F00020D123435B025B0A4746FF225FE7012356
:107A00009A1A1B2A21DC23000199D3409E318C4015
:107A10001A0023005C1EA34113435A0704D00F220F
:107A20001A40042A00D004335A0111D49B015B0A86
:107A3000002244E780234A46DB0313435B025B0AD0
:107A40003700FF223BE7019587E70022002336E756
:107A50000122002333E78023DB0323435B025B0A1D
:107A6000FF222CE7C4EB0000FFFFFFF741024200BA
:107A7000C30F490A120E00207E2A0DD99D2A0CD868
:107A8000802000040143952A0ADC9620821AD14006
:107A90004842002B00D108007047034A9818FBE7C2
:107AA000963A9140F4E7C046FFFFFF7F70B500288B
:107AB0003DD0C317C5185D40C40F280001F0F4FE87
:107AC0009E22121A962A07DCD2B2082833DD083823
:107AD00085406802400A23E0992A0BDD052329002E
